{
  "_format": "hh-sol-artifact-1",
  "contractName": "Trader",
  "sourceName": "contracts/Trader.sol",
  "abi": [
    {
      "inputs": [
        {
          "internalType": "address",
          "name": "vthoAddr",
          "type": "address"
        },
        {
          "internalType": "address",
          "name": "router",
          "type": "address"
        }
      ],
      "stateMutability": "nonpayable",
      "type": "constructor"
    },
    {
      "anonymous": false,
      "inputs": [
        {
          "indexed": false,
          "internalType": "uint256",
          "name": "gasprice",
          "type": "uint256"
        }
      ],
      "name": "Gas",
      "type": "event"
    },
    {
      "anonymous": false,
      "inputs": [
        {
          "indexed": false,
          "internalType": "uint256",
          "name": "targetAmount",
          "type": "uint256"
        },
        {
          "indexed": false,
          "internalType": "uint256",
          "name": "amountLeft",
          "type": "uint256"
        }
      ],
      "name": "SetParams",
      "type": "event"
    },
    {
      "anonymous": false,
      "inputs": [
        {
          "indexed": true,
          "internalType": "address",
          "name": "account",
          "type": "address"
        },
        {
          "indexed": false,
          "internalType": "uint256",
          "name": "amountIn",
          "type": "uint256"
        },
        {
          "indexed": false,
          "internalType": "uint256",
          "name": "fees",
          "type": "uint256"
        },
        {
          "indexed": false,
          "internalType": "uint256",
          "name": "maxRate",
          "type": "uint256"
        },
        {
          "indexed": false,
          "internalType": "uint256",
          "name": "amountOutMin",
          "type": "uint256"
        },
        {
          "indexed": false,
          "internalType": "uint256",
          "name": "amountOut",
          "type": "uint256"
        }
      ],
      "name": "Swap",
      "type": "event"
    },
    {
      "anonymous": false,
      "inputs": [
        {
          "indexed": true,
          "internalType": "address",
          "name": "to",
          "type": "address"
        },
        {
          "indexed": false,
          "internalType": "uint256",
          "name": "amount",
          "type": "uint256"
        }
      ],
      "name": "Withdraw",
      "type": "event"
    },
    {
      "inputs": [
        {
          "internalType": "address",
          "name": "",
          "type": "address"
        }
      ],
      "name": "accountParams",
      "outputs": [
        {
          "internalType": "uint256",
          "name": "targetAmount",
          "type": "uint256"
        },
        {
          "internalType": "uint256",
          "name": "amountLeft",
          "type": "uint256"
        }
      ],
      "stateMutability": "view",
      "type": "function"
    },
    {
      "inputs": [],
      "name": "owner",
      "outputs": [
        {
          "internalType": "address payable",
          "name": "",
          "type": "address"
        }
      ],
      "stateMutability": "view",
      "type": "function"
    },
    {
      "inputs": [
        {
          "internalType": "uint256",
          "name": "targetAmount",
          "type": "uint256"
        },
        {
          "internalType": "uint256",
          "name": "amountLeft",
          "type": "uint256"
        }
      ],
      "name": "setParams",
      "outputs": [],
      "stateMutability": "nonpayable",
      "type": "function"
    },
    {
      "inputs": [
        {
          "internalType": "address payable",
          "name": "account",
          "type": "address"
        },
        {
          "internalType": "uint256",
          "name": "amountIn",
          "type": "uint256"
        },
        {
          "internalType": "uint256",
          "name": "maxRate",
          "type": "uint256"
        }
      ],
      "name": "swap",
      "outputs": [],
      "stateMutability": "nonpayable",
      "type": "function"
    },
    {
      "inputs": [],
      "name": "swapRouter",
      "outputs": [
        {
          "internalType": "contract IUniswapV2Router02",
          "name": "",
          "type": "address"
        }
      ],
      "stateMutability": "view",
      "type": "function"
    },
    {
      "inputs": [],
      "name": "vtho",
      "outputs": [
        {
          "internalType": "contract IERC20",
          "name": "",
          "type": "address"
        }
      ],
      "stateMutability": "view",
      "type": "function"
    }
  ],
  "bytecode": "0x60806040523480156200001157600080fd5b506040516200186a3803806200186a833981810160405281019062000037919062000118565b816000806101000a81548173ffffffffffffffffffffffffffffffffffffffff021916908373ffffffffffffffffffffffffffffffffffffffff16021790555080600160006101000a81548173ffffffffffffffffffffffffffffffffffffffff021916908373ffffffffffffffffffffffffffffffffffffffff16021790555033600260006101000a81548173ffffffffffffffffffffffffffffffffffffffff021916908373ffffffffffffffffffffffffffffffffffffffff1602179055505050620001a7565b60008151905062000112816200018d565b92915050565b600080604083850312156200012c57600080fd5b60006200013c8582860162000101565b92505060206200014f8582860162000101565b9150509250929050565b600062000166826200016d565b9050919050565b600073ffffffffffffffffffffffffffffffffffffffff82169050919050565b620001988162000159565b8114620001a457600080fd5b50565b6116b380620001b76000396000f3fe608060405234801561001057600080fd5b50600436106100625760003560e01c806333d60233146100675780638da5cb5b146100985780639f1d0f59146100b6578063c0324c77146100d2578063c31c9c07146100ee578063d4b0dbdd1461010c575b600080fd5b610081600480360381019061007c9190610c36565b61012a565b60405161008f9291906110fe565b60405180910390f35b6100a061014e565b6040516100ad9190610f72565b60405180910390f35b6100d060048036038101906100cb9190610c88565b610174565b005b6100ec60048036038101906100e79190610d6a565b6109aa565b005b6100f6610ad8565b6040516101039190611008565b60405180910390f35b610114610afe565b6040516101219190610fed565b60405180910390f35b60036020528060005260406000206000915090508060000154908060010154905082565b600260009054906101000a900473ffffffffffffffffffffffffffffffffffffffff1681565b6000600360008573ffffffffffffffffffffffffffffffffffffffff1673ffffffffffffffffffffffffffffffffffffffff168152602001908152602001600020604051806040016040529081600082015481526020016001820154815250509050600081600001511161021d576040517f08c379a0000000000000000000000000000000000000000000000000000000008152600401610214906110a3565b60405180910390fd5b6000816020015111610264576040517f08c379a000000000000000000000000000000000000000000000000000000000815260040161025b906110c3565b60405180910390fd5b80600001518310156102ab576040517f08c379a00000000000000000000000000000000000000000000000000000000081526004016102a290611023565b60405180910390fd5b8260008054906101000a900473ffffffffffffffffffffffffffffffffffffffff1673ffffffffffffffffffffffffffffffffffffffff166370a08231866040518263ffffffff1660e01b81526004016103059190610f57565b602060405180830381600087803b15801561031f57600080fd5b505af1158015610333573d6000803e3d6000fd5b505050506040513d601f19601f820116820180604052508101906103579190610d41565b1015610398576040517f08c379a000000000000000000000000000000000000000000000000000000000815260040161038f90611063565b60405180910390fd5b60008054906101000a900473ffffffffffffffffffffffffffffffffffffffff1673ffffffffffffffffffffffffffffffffffffffff166323b872dd8530866040518463ffffffff1660e01b81526004016103f593929190610f8d565b602060405180830381600087803b15801561040f57600080fd5b505af1158015610423573d6000803e3d6000fd5b505050506040513d601f19601f820116820180604052508101906104479190610d18565b610486576040517f08c379a000000000000000000000000000000000000000000000000000000000815260040161047d90611083565b60405180910390fd5b60006113883a61049691906112f6565b6103e86003866104a691906112f6565b6104b091906112c5565b6104ba919061126f565b9050600081856104ca9190611350565b9050600084826104da91906112c5565b905060008054906101000a900473ffffffffffffffffffffffffffffffffffffffff1673ffffffffffffffffffffffffffffffffffffffff1663095ea7b3600160009054906101000a900473ffffffffffffffffffffffffffffffffffffffff16846040518363ffffffff1660e01b8152600401610559929190610fc4565b602060405180830381600087803b15801561057357600080fd5b505af1158015610587573d6000803e3d6000fd5b505050506040513d601f19601f820116820180604052508101906105ab9190610d18565b6105ea576040517f08c379a00000000000000000000000000000000000000000000000000000000081526004016105e190611043565b60405180910390fd5b6000600267ffffffffffffffff81111561062d577f4e487b7100000000000000000000000000000000000000000000000000000000600052604160045260246000fd5b60405190808252806020026020018201604052801561065b5781602001602082028036833780820191505090505b50905060008054906101000a900473ffffffffffffffffffffffffffffffffffffffff16816000815181106106b9577f4e487b7100000000000000000000000000000000000000000000000000000000600052603260045260246000fd5b602002602001019073ffffffffffffffffffffffffffffffffffffffff16908173ffffffffffffffffffffffffffffffffffffffff1681525050600160009054906101000a900473ffffffffffffffffffffffffffffffffffffffff1673ffffffffffffffffffffffffffffffffffffffff1663ad5c46486040518163ffffffff1660e01b815260040160206040518083038186803b15801561075b57600080fd5b505afa15801561076f573d6000803e3d6000fd5b505050506040513d601f19601f820116820180604052508101906107939190610c5f565b816001815181106107cd577f4e487b7100000000000000000000000000000000000000000000000000000000600052603260045260246000fd5b602002602001019073ffffffffffffffffffffffffffffffffffffffff16908173ffffffffffffffffffffffffffffffffffffffff16815250506000600160009054906101000a900473ffffffffffffffffffffffffffffffffffffffff1673ffffffffffffffffffffffffffffffffffffffff166318cbafe58585858d426040518663ffffffff1660e01b815260040161086c959493929190611127565b600060405180830381600087803b15801561088657600080fd5b505af115801561089a573d6000803e3d6000fd5b505050506040513d6000823e3d601f19601f820116820180604052508101906108c39190610cd7565b90508873ffffffffffffffffffffffffffffffffffffffff167f6d2535bccee43630e01014525de773080b47e1a82c56ef6a30802933a48c9e3489878a8786600188516109109190611350565b81518110610947577f4e487b7100000000000000000000000000000000000000000000000000000000600052603260045260246000fd5b6020026020010151604051610960959493929190611181565b60405180910390a27ff0fadcd9d25528e430e4862a6cc65c4af97cc5bc42e413e0fcd026d40345a6df3a60405161099791906110e3565b60405180910390a1505050505050505050565b600082116109ed576040517f08c379a00000000000000000000000000000000000000000000000000000000081526004016109e4906110a3565b60405180910390fd5b60008111610a30576040517f08c379a0000000000000000000000000000000000000000000000000000000008152600401610a27906110c3565b60405180910390fd5b604051806040016040528083815260200182815250600360003373ffffffffffffffffffffffffffffffffffffffff1673ffffffffffffffffffffffffffffffffffffffff16815260200190815260200160002060008201518160000155602082015181600101559050507f76a48d886100aa830bdaee3067b3804b124a7a680c4d53e33a941c62861aa2898282604051610acc9291906110fe565b60405180910390a15050565b600160009054906101000a900473ffffffffffffffffffffffffffffffffffffffff1681565b60008054906101000a900473ffffffffffffffffffffffffffffffffffffffff1681565b6000610b35610b30846111f9565b6111d4565b90508083825260208201905082856020860282011115610b5457600080fd5b60005b85811015610b845781610b6a8882610c21565b845260208401935060208301925050600181019050610b57565b5050509392505050565b600081359050610b9d81611621565b92915050565b600081519050610bb281611621565b92915050565b600081359050610bc781611638565b92915050565b600082601f830112610bde57600080fd5b8151610bee848260208601610b22565b91505092915050565b600081519050610c068161164f565b92915050565b600081359050610c1b81611666565b92915050565b600081519050610c3081611666565b92915050565b600060208284031215610c4857600080fd5b6000610c5684828501610b8e565b91505092915050565b600060208284031215610c7157600080fd5b6000610c7f84828501610ba3565b91505092915050565b600080600060608486031215610c9d57600080fd5b6000610cab86828701610bb8565b9350506020610cbc86828701610c0c565b9250506040610ccd86828701610c0c565b9150509250925092565b600060208284031215610ce957600080fd5b600082015167ffffffffffffffff811115610d0357600080fd5b610d0f84828501610bcd565b91505092915050565b600060208284031215610d2a57600080fd5b6000610d3884828501610bf7565b91505092915050565b600060208284031215610d5357600080fd5b6000610d6184828501610c21565b91505092915050565b60008060408385031215610d7d57600080fd5b6000610d8b85828601610c0c565b9250506020610d9c85828601610c0c565b9150509250929050565b6000610db28383610ddc565b60208301905092915050565b610dc7816113de565b82525050565b610dd681611396565b82525050565b610de581611384565b82525050565b610df481611384565b82525050565b6000610e0582611235565b610e0f818561124d565b9350610e1a83611225565b8060005b83811015610e4b578151610e328882610da6565b9750610e3d83611240565b925050600181019050610e1e565b5085935050505092915050565b610e61816113f0565b82525050565b610e7081611414565b82525050565b6000610e83601b8361125e565b9150610e8e8261152b565b602082019050919050565b6000610ea660178361125e565b9150610eb182611554565b602082019050919050565b6000610ec9601a8361125e565b9150610ed48261157d565b602082019050919050565b6000610eec601b8361125e565b9150610ef7826115a6565b602082019050919050565b6000610f0f601c8361125e565b9150610f1a826115cf565b602082019050919050565b6000610f32601a8361125e565b9150610f3d826115f8565b602082019050919050565b610f51816113d4565b82525050565b6000602082019050610f6c6000830184610dbe565b92915050565b6000602082019050610f876000830184610dcd565b92915050565b6000606082019050610fa26000830186610dbe565b610faf6020830185610deb565b610fbc6040830184610f48565b949350505050565b6000604082019050610fd96000830185610deb565b610fe66020830184610f48565b9392505050565b60006020820190506110026000830184610e58565b92915050565b600060208201905061101d6000830184610e67565b92915050565b6000602082019050818103600083015261103c81610e76565b9050919050565b6000602082019050818103600083015261105c81610e99565b9050919050565b6000602082019050818103600083015261107c81610ebc565b9050919050565b6000602082019050818103600083015261109c81610edf565b9050919050565b600060208201905081810360008301526110bc81610f02565b9050919050565b600060208201905081810360008301526110dc81610f25565b9050919050565b60006020820190506110f86000830184610f48565b92915050565b60006040820190506111136000830185610f48565b6111206020830184610f48565b9392505050565b600060a08201905061113c6000830188610f48565b6111496020830187610f48565b818103604083015261115b8186610dfa565b905061116a6060830185610dbe565b6111776080830184610f48565b9695505050505050565b600060a0820190506111966000830188610f48565b6111a36020830187610f48565b6111b06040830186610f48565b6111bd6060830185610f48565b6111ca6080830184610f48565b9695505050505050565b60006111de6111ef565b90506111ea828261145c565b919050565b6000604051905090565b600067ffffffffffffffff821115611214576112136114eb565b5b602082029050602081019050919050565b6000819050602082019050919050565b600081519050919050565b6000602082019050919050565b600082825260208201905092915050565b600082825260208201905092915050565b600061127a826113d4565b9150611285836113d4565b9250827fffffffffffffffffffffffffffffffffffffffffffffffffffffffffffffffff038211156112ba576112b961148d565b5b828201905092915050565b60006112d0826113d4565b91506112db836113d4565b9250826112eb576112ea6114bc565b5b828204905092915050565b6000611301826113d4565b915061130c836113d4565b9250817fffffffffffffffffffffffffffffffffffffffffffffffffffffffffffffffff04831182151516156113455761134461148d565b5b828202905092915050565b600061135b826113d4565b9150611366836113d4565b9250828210156113795761137861148d565b5b828203905092915050565b600061138f826113b4565b9050919050565b60006113a1826113b4565b9050919050565b60008115159050919050565b600073ffffffffffffffffffffffffffffffffffffffff82169050919050565b6000819050919050565b60006113e982611438565b9050919050565b60006113fb82611402565b9050919050565b600061140d826113b4565b9050919050565b600061141f82611426565b9050919050565b6000611431826113b4565b9050919050565b60006114438261144a565b9050919050565b6000611455826113b4565b9050919050565b6114658261151a565b810181811067ffffffffffffffff82111715611484576114836114eb565b5b80604052505050565b7f4e487b7100000000000000000000000000000000000000000000000000000000600052601160045260246000fd5b7f4e487b7100000000000000000000000000000000000000000000000000000000600052601260045260246000fd5b7f4e487b7100000000000000000000000000000000000000000000000000000000600052604160045260246000fd5b6000601f19601f8301169050919050565b7f5472616465723a20756e617574686f72697a656420616d6f756e740000000000600082015250565b7f5472616465723a20617070726f7665206661696c65642e000000000000000000600082015250565b7f5472616465723a20696e73756666696369656e742066756e6473000000000000600082015250565b7f5472616465723a207472616e7366657246726f6d206661696c65640000000000600082015250565b7f5472616465723a20696e76616c696420746172676574416d6f756e7400000000600082015250565b7f5472616465723a20696e76616c696420616d6f756e744c656674000000000000600082015250565b61162a81611384565b811461163557600080fd5b50565b61164181611396565b811461164c57600080fd5b50565b611658816113a8565b811461166357600080fd5b50565b61166f816113d4565b811461167a57600080fd5b5056fea26469706673582212206ee056982e69c12e7ecbc2c12d062e606798bb9faef52d78dfefcc26b8f54e6264736f6c63430008040033",
  "linkReferences": {},
  "deployedLinkReferences": {}
}